00COTAHIST.2026   BOVESPA 20260225                                                                                                                                                                                                                   
012026022502PETR4       010PETROBRAS   PN      N1   R$  000000000352000000000036500000000003480000000000356000000000035800000000003570000000000359034561000000000000150000000000000537600000000000000000000000000000000010000000000000BRPETRACNPR6180
012026022502VALE3       010VALE        ON      NM   R$  000000000600000000000065000000000005800000000000610000000000062000000000006100000000000625023456000000000000100000000000000620000000000000000000000000000000000010000000000000BRVALEACNOR0180
012026022502ITUB4       010ITAUUNIBANCOPN      N1   R$  000000000290000000000031000000000002850000000000295000000000030000000000002950000000000305012345000000000000080000000000000240000000000000000000000000000000000010000000000000BRITUBACNPR1180
012026022502BBDC4       010BRADESCO    PN      N1   R$  000000000145000000000015500000000001400000000000148000000000015000000000001480000000000152009876000000000000060000000000000090000000000000000000000000000000000010000000000000BRBBDCACNPR1180
012026022502WEGE3       010WEG         ON      NM   R$  000000000380000000000042000000000003750000000000395000000000040000000000003900000000000405005678000000000000040000000000000160000000000000000000000000000000000010000000000000BRWEGEACNOR4180
012026022596PETR4F      020PETROBRAS   PN      N1   R$  000000000352000000000036400000000003490000000000356000000000035700000000003560000000000358001234000000000000005000000000000017850000000000000000000000000000000010000000000000BRPETRACNPR6180
99COTAHIST.2026   BOVESPA 2026022500000007                                                                                                                                                                                                           
